{
  "_format": "hh-sol-artifact-1",
  "contractName": "Ledger",
  "sourceName": "contracts/Ledger.sol",
  "abi": [
    {
      "inputs": [
        {
          "internalType": "contract Invoice",
          "name": "_invoice",
          "type": "address"
        }
      ],
      "name": "createInvoice",
      "outputs": [],
      "stateMutability": "nonpayable",
      "type": "function"
    },
    {
      "inputs": [
        {
          "internalType": "string",
          "name": "buyerPan",
          "type": "string"
        }
      ],
      "name": "returnInvoices",
      "outputs": [
        {
          "internalType": "contract Invoice[]",
          "name": "",
          "type": "address[]"
        }
      ],
      "stateMutability": "view",
      "type": "function"
    }
  ],
  "bytecode": "0x608060405234801561001057600080fd5b50610778806100206000396000f3fe608060405234801561001057600080fd5b50600436106100365760003560e01c80638a374ad61461003b5780638cb2a91b14610057575b600080fd5b61005560048036038101906100509190610315565b610087565b005b610071600480360381019061006c9190610488565b6101e5565b60405161007e91906105df565b60405180910390f35b6000819080600181540180825580915050600190039060005260206000200160009091909190916101000a81548173ffffffffffffffffffffffffffffffffffffffff021916908373ffffffffffffffffffffffffffffffffffffffff16021790555060008173ffffffffffffffffffffffffffffffffffffffff166397eaa9046040518163ffffffff1660e01b8152600401600060405180830381865afa158015610137573d6000803e3d6000fd5b505050506040513d6000823e3d601f19601f82011682018060405250810190610160919061069b565b9050600181604051610172919061072b565b9081526020016040518091039020829080600181540180825580915050600190039060005260206000200160009091909190916101000a81548173ffffffffffffffffffffffffffffffffffffffff021916908373ffffffffffffffffffffffffffffffffffffffff1602179055505050565b60606001826040516101f7919061072b565b908152602001604051809103902080548060200260200160405190810160405280929190818152602001828054801561028557602002820191906000526020600020905b8160009054906101000a900473ffffffffffffffffffffffffffffffffffffffff1673ffffffffffffffffffffffffffffffffffffffff168152602001906001019080831161023b575b50505050509050919050565b6000604051905090565b600080fd5b600080fd5b600073ffffffffffffffffffffffffffffffffffffffff82169050919050565b60006102d0826102a5565b9050919050565b60006102e2826102c5565b9050919050565b6102f2816102d7565b81146102fd57600080fd5b50565b60008135905061030f816102e9565b92915050565b60006020828403121561032b5761032a61029b565b5b600061033984828501610300565b91505092915050565b600080fd5b600080fd5b6000601f19601f8301169050919050565b7f4e487b7100000000000000000000000000000000000000000000000000000000600052604160045260246000fd5b6103958261034c565b810181811067ffffffffffffffff821117156103b4576103b361035d565b5b80604052505050565b60006103c7610291565b90506103d3828261038c565b919050565b600067ffffffffffffffff8211156103f3576103f261035d565b5b6103fc8261034c565b9050602081019050919050565b82818337600083830152505050565b600061042b610426846103d8565b6103bd565b90508281526020810184848401111561044757610446610347565b5b610452848285610409565b509392505050565b600082601f83011261046f5761046e610342565b5b813561047f848260208601610418565b91505092915050565b60006020828403121561049e5761049d61029b565b5b600082013567ffffffffffffffff8111156104bc576104bb6102a0565b5b6104c88482850161045a565b91505092915050565b600081519050919050565b600082825260208201905092915050565b6000819050602082019050919050565b6000819050919050565b600061052261051d610518846102a5565b6104fd565b6102a5565b9050919050565b600061053482610507565b9050919050565b600061054682610529565b9050919050565b6105568161053b565b82525050565b6000610568838361054d565b60208301905092915050565b6000602082019050919050565b600061058c826104d1565b61059681856104dc565b93506105a1836104ed565b8060005b838110156105d25781516105b9888261055c565b97506105c483610574565b9250506001810190506105a5565b5085935050505092915050565b600060208201905081810360008301526105f98184610581565b905092915050565b60005b8381101561061f578082015181840152602081019050610604565b60008484015250505050565b600061063e610639846103d8565b6103bd565b90508281526020810184848401111561065a57610659610347565b5b610665848285610601565b509392505050565b600082601f83011261068257610681610342565b5b815161069284826020860161062b565b91505092915050565b6000602082840312156106b1576106b061029b565b5b600082015167ffffffffffffffff8111156106cf576106ce6102a0565b5b6106db8482850161066d565b91505092915050565b600081519050919050565b600081905092915050565b6000610705826106e4565b61070f81856106ef565b935061071f818560208601610601565b80840191505092915050565b600061073782846106fa565b91508190509291505056fea264697066735822122069a3df3c30f20da33da18bb641a7ec61acac58a4b94e03a801d614b9ef638c9464736f6c63430008110033",
  "linkReferences": {},
  "deployedLinkReferences": {}
}